{
    "contractName": "Voting",
    "abi": [
        {
            "inputs": [
                {
                    "internalType": "string[]",
                    "name": "_candidateNames",
                    "type": "string[]"
                }
            ],
            "stateMutability": "nonpayable",
            "type": "constructor"
        },
        {
            "inputs": [
                {
                    "internalType": "uint256",
                    "name": "",
                    "type": "uint256"
                }
            ],
            "name": "candidates",
            "outputs": [
                {
                    "internalType": "string",
                    "name": "",
                    "type": "string"
                }
            ],
            "stateMutability": "view",
            "type": "function"
        },
        {
            "inputs": [
                {
                    "internalType": "address",
                    "name": "voter",
                    "type": "address"
                }
            ],
            "name": "checkIfVoted",
            "outputs": [
                {
                    "internalType": "bool",
                    "name": "",
                    "type": "bool"
                }
            ],
            "stateMutability": "view",
            "type": "function"
        },
        {
            "inputs": [
                {
                    "internalType": "string",
                    "name": "candidate",
                    "type": "string"
                }
            ],
            "name": "getVoteCount",
            "outputs": [
                {
                    "internalType": "uint256",
                    "name": "",
                    "type": "uint256"
                }
            ],
            "stateMutability": "view",
            "type": "function"
        },
        {
            "inputs": [
                {
                    "internalType": "address",
                    "name": "",
                    "type": "address"
                }
            ],
            "name": "hasVoted",
            "outputs": [
                {
                    "internalType": "bool",
                    "name": "",
                    "type": "bool"
                }
            ],
            "stateMutability": "view",
            "type": "function"
        },
        {
            "inputs": [
                {
                    "internalType": "string",
                    "name": "candidate",
                    "type": "string"
                }
            ],
            "name": "vote",
            "outputs": [],
            "stateMutability": "nonpayable",
            "type": "function"
        },
        {
            "inputs": [
                {
                    "internalType": "address",
                    "name": "",
                    "type": "address"
                }
            ],
            "name": "voters",
            "outputs": [
                {
                    "internalType": "string",
                    "name": "",
                    "type": "string"
                }
            ],
            "stateMutability": "view",
            "type": "function"
        },
        {
            "inputs": [
                {
                    "internalType": "string",
                    "name": "",
                    "type": "string"
                }
            ],
            "name": "votes",
            "outputs": [
                {
                    "internalType": "uint256",
                    "name": "",
                    "type": "uint256"
                }
            ],
            "stateMutability": "view",
            "type": "function"
        },
        {
            "inputs": [],
            "name": "winner",
            "outputs": [
                {
                    "internalType": "string",
                    "name": "winnerName",
                    "type": "string"
                },
                {
                    "internalType": "uint256",
                    "name": "winnerVoteCounts",
                    "type": "uint256"
                }
            ],
            "stateMutability": "view",
            "type": "function"
        }
    ],
    "bytecode": "6080604052346102f257610abc80380380610019816102f6565b9283398101906020818303126102f2578051906001600160401b0382116102f257019080601f830112156102f2578151906001600160401b0382116101ec578160051b92602061006a8186016102f6565b809481520160208195830101918383116102f25760208101915b838310610281578551876801000000000000000082116101ec575f54825f55808310610200575b505f8080525f516020610a9c5f395f51905f5292915b8282106100d757604051610732908161036a8239f35b80518051906001600160401b0382116101ec576100f4865461031b565b601f81116101b1575b50602090601f83116001146101485792826001949360209386955f9261013d575b50505f19600383901b1c191690841b1787555b019401910190926100c1565b01519050898061011e565b90601f19831691875f52815f20925f5b8181106101995750936020936001969387969383889510610181575b505050811b018755610131565b01515f1960f88460031b161c19169055898080610174565b92936020600181928786015181550195019301610158565b6101dc90875f5260205f20601f850160051c810191602086106101e2575b601f0160051c0190610353565b866100fd565b90915081906101cf565b634e487b7160e01b5f52604160045260245ffd5b5f80525f516020610a9c5f395f51905f529081019083015b81811061022557506100ab565b806102326001925461031b565b8061023f575b5001610218565b601f8111831461025457505f81555b85610238565b61027090825f5283601f60205f20920160051c82019101610353565b805f525f602081208183555561024e565b82516001600160401b0381116102f257820185603f820112156102f2576020810151916001600160401b0383116101ec576102c5601f8401601f19166020016102f6565b83815260408385010188106102f2575f602085819660408397018386015e83010152815201920191610084565b5f80fd5b6040519190601f01601f191682016001600160401b038111838210176101ec57604052565b90600182811c92168015610349575b602083101461033557565b634e487b7160e01b5f52602260045260245ffd5b91607f169161032a565b81811061035e575050565b5f815560010161035356fe60806040526004361015610011575f80fd5b5f3560e01c8063069953a7146103c157806309eef43e146104915780631dfeef7a146104915780633477ee2e14610448578063a3ec138d146103f4578063b99ef1fa146103c1578063dfbf53ae146103155763fc36e15b14610071575f80fd5b346103115761007f366104f4565b335f52600360205260ff60405f2054166102d3575f5f905f5460208401925b81811061025d575b505015610223576020604051809284518091835e8101600181520301902080545f19811461020f576001019055335f52600260205260405f20815167ffffffffffffffff81116101fb576100fa8254610596565b601f81116101b6575b50602092601f821160011461015757928192935f9261014c575b50508160011b915f199060031b1c19161790555b335f908152600360205260409020805460ff19166001179055005b015190505f8061011d565b601f19821693835f52805f20915f5b86811061019e5750836001959610610186575b505050811b019055610131565b01515f1960f88460031b161c191690555f8080610179565b91926020600181928685015181550194019201610166565b825f5260205f20601f830160051c810191602084106101f1575b601f0160051c01905b8181106101e65750610103565b5f81556001016101d9565b90915081906101d0565b634e487b7160e01b5f52604160045260245ffd5b634e487b7160e01b5f52601160045260245ffd5b60405162461bcd60e51b815260206004820152601260248201527124b73b30b634b21031b0b73234b230ba329760711b6044820152606490fd5b6102668161056c565b5060405161028a8161027c602082018095610692565b03601f1981018352826104d2565b51902060405160208101906102b76020828a51808b875e81015f838201520301601f1981018352826104d2565b519020146102c75760010161009e565b50505060015f806100a6565b60405162461bcd60e51b81526020600482015260166024820152751e5bdd481a185d9948185b1c9958591e481d9bdd195960521b6044820152606490fd5b5f80fd5b34610311575f366003190112610311575f8054606090825b8181106103575761034d838560405192839260408452604084019061066e565b9060208301520390f35b8361037360206103668461056c565b5060405192838092610692565b6001815203019020541161038a575b60010161032d565b925090506103a061039a8361056c565b506105ce565b9060016103b160206103668661056c565b8481520301902054939050610382565b3461031157602080806103d3366104f4565b604051928184925191829101835e8101600181520301902054604051908152f35b34610311576020366003190112610311576004356001600160a01b03811690819003610311575f52600260205261044461043060405f206105ce565b60405191829160208352602083019061066e565b0390f35b34610311576020366003190112610311576004355f548110156103115761046e9061056c565b61047e57610430610444916105ce565b634e487b7160e01b5f525f60045260245ffd5b34610311576020366003190112610311576004356001600160a01b03811690819003610311575f526003602052602060ff60405f2054166040519015158152f35b90601f8019910116810190811067ffffffffffffffff8211176101fb57604052565b60206003198201126103115760043567ffffffffffffffff811161031157816023820112156103115780600401359067ffffffffffffffff82116101fb576040519261054a601f8401601f1916602001856104d2565b8284526024838301011161031157815f92602460209301838601378301015290565b5f54811015610582575f805260205f2001905f90565b634e487b7160e01b5f52603260045260245ffd5b90600182811c921680156105c4575b60208310146105b057565b634e487b7160e01b5f52602260045260245ffd5b91607f16916105a5565b9060405191825f8254926105e184610596565b808452936001811690811561064c5750600114610608575b50610606925003836104d2565b565b90505f9291925260205f20905f915b818310610630575050906020610606928201015f6105f9565b6020919350806001915483858901015201910190918492610617565b90506020925061060694915060ff191682840152151560051b8201015f6105f9565b805180835260209291819084018484015e5f828201840152601f01601f1916010190565b5f92918154916106a183610596565b92600181169081156106e957506001146106ba57505050565b90919293505f5260205f205f905b8382106106d55750500190565b6001816020925484860152019101906106c8565b60ff19168352505081151590910201915056fea26469706673582212207a118d63e39413939900a783c964624b4cd6effb35c9ee72325ab178f2626d4664736f6c634300081b0033290decd9548b62a8d60345a988386fc84ba6bc95484008f6362f93160ef3e563",
    "sourcePath": "/Users/amin/Desktop/Projects/Contracts/contracts/Voting.sol",
    "compiler": {
        "name": "solc",
        "version": "0.8.27+commit.40a35a09"
    },
    "functionHashes": {
        "candidates(uint256)": "3477ee2e",
        "checkIfVoted(address)": "1dfeef7a",
        "getVoteCount(string)": "069953a7",
        "hasVoted(address)": "09eef43e",
        "vote(string)": "fc36e15b",
        "voters(address)": "a3ec138d",
        "votes(string)": "b99ef1fa",
        "winner()": "dfbf53ae"
    },
    "gasEstimates": {
        "creation": {
            "codeDepositCost": "368400",
            "executionCost": "infinite",
            "totalCost": "infinite"
        },
        "external": {
            "candidates(uint256)": "infinite",
            "checkIfVoted(address)": "2415",
            "getVoteCount(string)": "infinite",
            "hasVoted(address)": "2393",
            "vote(string)": "infinite",
            "voters(address)": "infinite",
            "votes(string)": "infinite",
            "winner()": "infinite"
        }
    }
}